:0200000270008C
:10A00000807F0020D9D9070001DA070003DA0700B2
:10A0100005DA070007DA070009DA07000000000088
:10A020000000000000000000000000000BDA070044
:10A030000DDA0700000000000FDA070011DA070050
:10A0400013DA070013DA0700A1CC070013DA0700C0
:10A0500013DA070013DA070013DA070013DA070030
:10A0600013DA07008DD9070013DA070013DA0700A7
:10A0700013DA070013DA070013DA070013DA070010
:10A0800013DA070099A8070013DA070013DA0700AC
:10A0900059A9070013DA0700B1D6070013DA070041
:10A0A00013DA070013DA070013DA070013DA0700E0
:10A0B00013DA070013DA07000000000000000000B8
:10A0C00013DA070013DA070013DA070013DA0700C0
:10A0D00013DA070013DA070013DA070000000000A4
:10A0E0000000000000000000000000000000000070
:10A0F0000000000000000000000000000000000060
:10A10000000000000000000000000000000000004F
:10A11000000000000000000000000000000000003F
:10A4000010B5054C237833B9044B13B10448AFF3AE
:10A4100000800123237010BD742C00200000000078
:10A42000E8DA070008B5034B1BB103490348AFF353
:10A43000008008BD00000000782C0020E8DA07004A
:10A44000A3F5803A704700BF174B002B08BF134B92
:10A450009D46FFF7F5FF00218B460F461348144A2F
:10A46000121A00F063F80E4B002B00D098470D4BEA
:10A47000002B00D098470020002104000D000D485B
:10A48000002802D00C48AFF3008000F02BF8200029
:10A49000290002F0AFFE00F011F800BF0000080034
:10A4A0000000000000000000807F0020742C0020CD
:10A4B00044380020000000000000000008B5074BF1
:10A4C000044613B10021AFF30080054B1868836A7E
:10A4D00003B19847204600F031F800BF00000000AB
:10A4E00048DA070070B50D4D0D4C641BA410002612
:10A4F000A64209D10B4D0C4C03F09AFA641BA41030
:10A500000026A64205D170BD55F8043B9847013698
:10A51000EEE755F8043B98470136F2E76C2C002033
:10A520006C2C00206C2C0020702C00200244034670
:10A53000934200D1704703F8011BF9E7FEE700BF23
:10A540001FB50021CDE9021001AA44F20100ADF8C7
:10A55000041000F003F805B05DF804FBBFF34F8F63
:10A560000549064BCA6802F4E0621343CB60BFF3AF
:10A570004F8F00BFFDE700BF00ED00E00400FA05CB
:10A580004B1C30B5DB00044612F003009BB20DD12A
:10A59000074D2A601A44074B1A60074B1870074B87
:10A5A0001870074B1C80074B198030BD0720FCE753
:10A5B000982C0020942C0020902C0020A02C00200F
:10A5C0009C2C00209E2C00202DE9F3472B4F3B882C
:10A5D0008B4206460D4690464BD300240DF10700F2
:10A5E0008DF8074000F0E0FC254B26481A78264BF2
:10A5F000008893F800C084455FFA8CF138BF4C1C8A
:10A60000D2B238BFE4B2A2422DD01C781A78D1B2AF
:10A61000904286BF0131C9B2002119709DF8070030
:10A6200000F0E6FC4FF6FF739C4224D0DFF8609008
:10A63000D9F800204FEAC40A42F8348002EBC40380
:10A64000A6B19DB1114B38881B682A4604FB003027
:10A65000314603F0DFF9D9F80030534400209D80E3
:10A6600002B0BDE8F0874FF6FF74D7E7002098806E
:10A67000F6E70920F4E70420F2E700BF9C2C002055
:10A68000A02C00209E2C0020902C0020942C002038
:10A69000982C0020F8B5114C114E254622783378BD
:10A6A0009A421AD00F48227800882178CBB288428B
:10A6B00086BF0133DBB200230B482B700B4B07889E
:10A6C0001B680B48D2B203EBC201006853F832306A
:10A6D000898802FB07009847E0E7F8BDA02C00201E
:10A6E000902C00209E2C00209C2C0020982C0020D8
:10A6F000942C0020494B4FF40032C3F8802003F122
:10A70000C04303F53C534FF48032C3F84823012182
:10A71000C3F808232F2259601046013800BF00BF3C
:10A7200000BF00BF00BF00BF00BF00BF00BF00BF31
:10A7300000BF00BF00BF00BF00BF00BF00BF00BF21
:10A7400000BF00BF00BF00BF00BF00BF00BF00BF11
:10A7500000BF00BF00BF00BF00BF00BF00BF00BF01
:10A7600000BF00BF00BF00BF00BF00BF00BF00BFF1
:10A7700000BF00BF00BF00BF00BF00BF00BF00BFE1
:10A7800000BF00BF00BF00BF00BF00BF00BF00BFD1
:10A79000C3D19960224900230B601046013800BFE5
:10A7A00000BF00BF00BF00BF00BF00BF00BF00BFB1
:10A7B00000BF00BF00BF00BF00BF00BF00BF00BFA1
:10A7C00000BF00BF00BF00BF00BF00BF00BF00BF91
:10A7D00000BF00BF00BF00BF00BF00BF00BF00BF81
:10A7E00000BF00BF00BF00BF00BF00BF00BF00BF71
:10A7F00000BF00BF00BF00BF00BF00BF00BF00BF61
:10A8000000BF00BF00BF00BF00BF00BF00BF00BF50
:10A8100000BFC3D1034A1370704700BF00E100E0DE
:10A82000B82C0020A92C0020437882780133DBB2B9
:10A830009A4208BF002302789A421FBF0B704378E8
:10A84000406803EB430314BF00EBC30000207047D4
:10A85000EFF30583C3F30803BBB1103B5AB2002AE0
:10A86000ADBF02F160430B4A03F00F0303F56143F0
:10A87000B4BFD35C93F800335B09022BDAB206D085
:10A88000062A14BF022001207047022070470020D2
:10A89000704700BF14ED00E02DE9F8432649274B2F
:10A8A0000025C1F84051C1F84451C1F84851C1F8E0
:10A8B0004C51C1F80051C1F804511B68002B34D031
:10A8C000D1F804451E49DFF88C800968641A24F029
:10A8D0007F442F461A68A24212D8A41A15441A7C43
:10A8E000DE6962B1D8F800901F74D3E90521B9F18F
:10A8F000000F1ED01046C84708B1FFF721FEB6B9B9
:10A90000104A114B11781B788B4205D10133DBB211
:10A91000022B08BF0023137012780C4B43F822500F
:10A920000B4B4FF48012C3F80021BDE8F883334687
:10A93000D0E708469047E2E700100140C02C002015
:10A94000B82C0020B52C0020B42C0020AC2C00200A
:10A9500000E100E0A42C00202DE9F04F9049914A3D
:10A9600091480B68007885B002931378984200F004
:10A9700014810133DBB2022B08BF0023137012785D
:10A980008A4B53F82240029B234423F07F430B6001
:10A9900001230093864BD1F800C01B680393854BBD
:10A9A00093F800B0844B1B680193844B002193F80B
:10A9B0000080039B58468E460138C0B2FF2840F005
:10A9C0000581BEF1000F05D07C4A82F80080744AF0
:10A9D000C2F800C0764D01B12B60009A2B68002AA6
:10A9E00040F04981039AD31A18BF01230093002134
:10A9F000724BD5F800A01B780293694B00271E68A4
:10AA000053460BF1FF325FFA82FBBBF1FF0F40F0C0
:10AA10003781674A07B1136013689A4503D1009ADA
:10AA2000002A00F0B480002B00F0AB811A68644B60
:10AA3000644DD3F804452878A11B21F07F410331F0
:10AA400000284BD14FF48030C3F84403C3F804030B
:10AA50005D484FF40037C0F88071076001271F6020
:10AA60002F20013800BF00BF00BF00BF00BF00BFE4
:10AA700000BF00BF00BF00BF00BF00BF00BF00BFDE
:10AA800000BF00BF00BF00BF00BF00BF00BF00BFCE
:10AA900000BF00BF00BF00BF00BF00BF00BF00BFBE
:10AAA00000BF00BF00BF00BF00BF00BF00BF00BFAE
:10AAB00000BF00BF00BF00BF00BF00BF00BF00BF9E
:10AAC00000BF00BF00BF00BF00BF00BF00BF00BF8E
:10AAD00000BF00BF00BF00BFC3D12F708A422CBF90
:10AAE000B618761826F07F46C3F84065D3F80425DB
:10AAF000121B22F07F42361B033226F07F46B24201
:10AB000045D9D3F80425C3F840252F20013800BFCC
:10AB100000BF00BF00BF00BF00BF00BF00BF00BF3D
:10AB200000BF00BF00BF00BF00BF00BF00BF00BF2D
:10AB300000BF00BF00BF00BF00BF00BF00BF00BF1D
:10AB400000BF00BF00BF00BF00BF00BF00BF00BF0D
:10AB500000BF00BF00BF00BF00BF00BF00BF00BFFD
:10AB600000BF00BF00BF00BF00BF00BF00BF00BFED
:10AB700000BF00BF00BF00BF00BF00BF00BF00BFDD
:10AB800000BFC3D1104B4FF40032C3F800210B4B70
:10AB900000221A7005B0BDE8F08F00240094F9E699
:10ABA000B82C0020B42C0020B52C0020AC2C0020A8
:10ABB000C02C0020BC2C0020C42C0020A82C00207D
:10ABC00000100140A92C002000E100E0019A02EBF6
:10ABD000C00512F830206E7896423FF4EDAE6E68F4
:10ABE00002EB420906EBC90A0132AE78D2B29642B4
:10ABF00008BF00226E6816F83960022E09D0032EB5
:10AC0000E9D1002BE7D04FF000011974DB69012175
:10AC1000F7E7DAF804A099461E46B9F1000FDAD03A
:10AC2000CA4500F0B1804E46D9F81C90F5E70121E5
:10AC3000B7E01868A04204D902B12B60041B1C6065
:10AC4000D6E6D3F80CC01F60241A0644D869BCF1BC
:10AC5000000F07D0029AD961324422F07F42C3E943
:10AC6000012C1946009A0346002BE2D1002A3FF43A
:10AC7000BFAE2B60BCE60022114616461746F3E72E
:10AC8000019A02EBCB0000292FD190F801800278C5
:10AC900042453FF4B6AE02EB420E90F80290D0F877
:10ACA00004C00132D2B29145027004BF002202708A
:10ACB0001CF83E20012A0CEBCE05E8D16A6892F818
:10ACC00010C0BCF1000FE2D1D5F808E0C2F804E0F2
:10ACD000EC6894602C69D460029C6D699561002CCD
:10ACE0000CBF75466546556001E00A46C96955685E
:10ACF000344CD2F808E0A5EB060C2CF07F4CA445B0
:10AD000016D80CEB0E0515600024C2E901444FF083
:10AD1000010414740024D46143B1D2F800C01D684A
:10AD2000AC452BD8A5EB0C051D60D361012723E0B2
:10AD3000751B25F07F45754502D2AEEB0505E2E7B0
:10AD400000241460E0E7ACEB0E0CD5F81CE0A8463C
:10AD5000BEF1000F0AD07546D5F800E0E645F2D303
:10AD6000AEEB0C0EC5F800E0AE464546C2F800C09A
:10AD7000C2F81CE0EA611A46134684E798461D466D
:10AD8000EAE7FFF7B7FC02E7B1450AD1DB69002B20
:10AD90007FF44DAF0C4901278F609C463946BE4673
:10ADA000B846D9F800A0D9F81C90C6F81C90B9F1A3
:10ADB000000F3FF410AFD9F800605644C9F80060A6
:10ADC00009E700BFFEFF7F00001001402DE9F843B6
:10ADD00012F0030507460E469846144604D1DFF8E4
:10ADE00098901AB9C9F80050072533E0FFF782FCA4
:10ADF0001A4BC9F80040C3F80080194B03221A709F
:10AE000006EB460104F11802C90010462B466260A9
:10AE100023706370A670083484420A44F7D1114A43
:10AE20001360114A1370114A1370114B4FF48012C2
:10AE3000C021C3F8802183F814131A6002F1804204
:10AE4000A2F56F22C2F8087583F81113094BD2F8E6
:10AE500004251A602846BDE8F88300BFA42C002012
:10AE6000BC2C0020C02C0020B42C0020B52C0020CD
:10AE700000E100E0B82C0020C42C0020074B1B6828
:10AE80004BB132B128B10368187C20B959745A61AA
:10AE90007047072070470820704700BFC42C00206F
:10AEA0002DE9F3421B4B1E6804460F46154676B348
:10AEB00068B3042929D943694BB3437C012B0CBFE8
:10AEC00089464FF00009FFF7C3FC06EBC0060DF101
:10AED00007013046FFF7A8FCA8B1012303700E4B11
:10AEE0004460D3F80435C0E902379DF80730C0E963
:10AEF00004957370094B4FF48012C3F800210020B1
:10AF000002B0BDE8F0820420FAE70720F8E7082045
:10AF1000F6E700BFC42C00200010014000E100E073
:10AF200073B5124B1E680546F6B1E8B14369DBB153
:10AF300000240474FFF78CFC06EBC0060DF107013A
:10AF40003046FFF771FC68B1022303709DF80730AB
:10AF500045607370064B4FF48012C3F80021204601
:10AF600002B070BD0420FBE70820F9E7C42C0020E4
:10AF700000E100E0082910B5044602D00020FFF7E8
:10AF8000DFFAD4E90030BDE81040184707B5054A9C
:10AF9000CDE9000108216846FFF716FB03B05DF814
:10AFA00004FB00BF75AF070070B5EFF3108672B6F3
:10AFB0000C4A946801239CB993600B4B0B4DD3F85A
:10AFC000801029401160C3F88050D3F8841051607C
:10AFD0004FF0FF32C3F88420047006B962B670BD2A
:10AFE0000370FAE73838002000E100E0FC06FFBCFF
:10AFF00010B5084B9A685AB150B9EFF3108172B688
:10B00000054A1C6814605C685460986001B962B6B7
:10B0100010BD00BF3838002000E100E048DF704775
:10B0200011DF704713DF7047064B1878012803D1F2
:10B03000012904BF0221197012B11046FFF780BA2E
:10B04000704700BFD02C002010B5064CFFF7E6FF7C
:10B0500008B1FFF775FAFFF71DFB2378023B022BBF
:10B06000F4D810BDD02C002008B509481C2102F0EE
:10B0700011F808B1FFF764FA0649054800231C22BD
:10B0800001F0F8FF18B1BDE80840FFF759BA08BD54
:10B09000C82C0020D42C002007B50368013303D14D
:10B0A000002003B05DF804FB01A800F03DF9019B0E
:10B0B0001A78012AF4D1588830B1996843F208030C
:10B0C0000022186800F054F9019B5B881B1A584253
:10B0D0005841E6E784B02DE9F34108AC84E80F005D
:10B0E0009DF82040BDF822800B9D01A8DDE909767E
:10B0F00000F01AF954B9364B0122FF21A3F802805F
:10B100009D601A701971334B1A7012E0012C17D11F
:10B110002F4BBA192A449A60A5221A70FF221A717D
:10B120000C9AA3F80280C3E903765D619A61294B0A
:10B130001C70FFF799FF02B0BDE8F04104B0704702
:10B14000032C0FD1019A224B117819705188926803
:10B150009A60C3E90376AA2259801A715D611D4B7A
:10B160000122D1E7022C16D1019A194B1178A52999
:10B170000BD100225A809A60FF221A70FF221A71A6
:10B180000022C3E903225A61E9E7197051889268E5
:10B1900059809A60F2E7052C08D100F0B3FD08B1A0
:10B1A000FFF7CEF90B4B03221A70C4E7042C09D128
:10B1B000074B00229A605A80FF221A70019A127976
:10B1C0001A71B6E7062CB6D1024B0422ECE700BF99
:10B1D000D42C0020D02C00201FB50023CDE9023351
:10B1E000074B019301F010FF30B906494FF4FE23DD
:10B1F00001A84B6001F02AFF05B05DF804FB00BF19
:10B2000029B00700C82C002010B500F021FA044630
:10B2100020B900F053FD0446FFF716FF204610BD8D
:10B2200010B5FFF7FDFE08B1FFF78AF90D4A106867
:10B230000023012404FA03F1014203F1010318BFC2
:10B24000C2F88010202BF5D143F208042068FFF7E4
:10B25000E9FE08B1FFF774F92068BDE8104000F07E
:10B2600069B800BF00E100E007B501A800F05CF894
:10B27000019B1A78A52A07D01879A0F1AA03584291
:10B28000584103B05DF804FB0120FAE710B500F067
:10B29000FBFB98B1642001F030FA00F065FB08B1C7
:10B2A000FFF74EF900F0F0FB08B1FFF749F900F0A5
:10B2B000A4FB044638B1FFF743F904E000F0BFFBFC
:10B2C00004460028E6D1204610BD00B589B003AB86
:10B2D000142200211846FFF729F902228DF80C20CC
:10B2E000002200920FC8FFF7F5FEFFF7ADFE002029
:10B2F00009B05DF804FB13B5044601A800F014F88A
:10B30000019B1A7822705A8862809A68A2601A7922
:10B310002271DA68E2601A6922615A6962619B6986
:10B32000A36102B010BD0000014B0360704700BF75
:10B3300000F00700F0B50346186880F308885868E5
:10B34000FF2464B2EFF30585002D01D1A646004726
:10B350002546064621273FBAF0B4002400250026E2
:10B360000027F0B4F92040B2004700BFF0BD00BF95
:10B3700010B5044622B1108821448C4203D110BD7F
:10B380004FF6FF70F8E743BA14F8010B9BB2434045
:10B39000C3F30312534083EA03335A0102F4FF520A
:10B3A0009BB283EA0200E8E718DF704770470000AD
:10B3B000012973B514460D461A4608D0032912D048
:10B3C00014B3204602B0BDE87040FFF7B9B80F4B88
:10B3D0001B78052BF4D10E4B1B68002BF0D02146B7
:10B3E00004209847ECE7094E3378022BE8D1094B4B
:10B3F00001925B689847064B35701B68002BDFD0C5
:10B40000019A21462846ECE702B070BDF82C0020D6
:10B41000F02C00201C2D002000B5084B89B0012223
:10B420001A7005238DF80C30079B009303AB0FCBEC
:10B43000FFF750FE09B05DF804FB00BFF92C0020B7
:10B4400000B589B003238DF80C300A4B1B88ADF88A
:10B450000E30094B5A6804929A68DB680693079B82
:10B460000093059203AB0FCBFFF734FE002009B029
:10B470005DF804FB282D0020B42D002000B589B014
:10B4800001238DF80C300B4B1B88ADF80E3043F2C6
:10B4900008031A68084B596804919968DB68069399
:10B4A0000591009203AB0FCBFFF714FE002009B00B
:10B4B0005DF804FB282D0020B42D002000B589B0D4
:10B4C00003AB142200211846FFF730F804228DF850
:10B4D0000C20002200920FC8FFF7FCFD09B05DF8B8
:10B4E00004FB000008B50C4B0C4818600C4B022202
:10B4F0001A7043F208031B68C3F5F4215B42C3F3DF
:10B500000C03C91A490801F0C5FD18B1BDE808408F
:10B51000FFF716B808BD00BFD42D0020CC2D0020A9
:10B52000F82C002008B5084B08481860084B022288
:10B530001A70084B196801F0ADFD18B1BDE808405C
:10B54000FEF7FEBF08BD00BFD42D0020C42D002093
:10B55000F82C00202C2D002070B5144E1448F168F2
:10B5600088B001F097FD08B1FEF7EAFF1149F268D3
:10B5700049680F48002301F07DFD044698B903ADEA
:10B58000014614222846FEF7D1FF0B4B8DF80C40E4
:10B590001B88ADF80E30F3680693079B009395E87F
:10B5A0000F00FFF797FD204608B070BDB42D0020B6
:10B5B000C42D0020CC2D0020282D002010B50B4BD1
:10B5C0001B788BB90A48FFF7ABFC08B1FEF7B8FF50
:10B5D000074800224FF47011FFF762FC044608B1DF
:10B5E000FEF7AEFF204610BD0824FBE7F92C002033
:10B5F000FC2C002070B50C4686B00321CDE902106A
:10B600000546960802A8019304940596FFF7CCFE20
:10B61000E0B1B4F5805F019B11D8012302A8CDE908
:10B620000235CDE90446FFF7BFFE78B9032302A82F
:10B63000CDE90235CDE90446FFF7B6FE06E01A462D
:10B64000E11AE81AFFF7D6FF0028E6D006B070BD71
:10B65000F0B585B01F4B01931F4B204E204F0025A6
:10B660001D70204B314601A8CDE902551D8001F027
:10B67000EDFC044618B13D70204605B0F0BD43F224
:10B6800008031A68726096E80300174A82E803000C
:10B690001B685842C3F5F421C0F30C00091A03EBF0
:10B6A000510353601148124A2146FFF7E7FB08B1E6
:10B6B000FEF746FF0F4800224FF47011FFF7F0FB32
:10B6C00008B1FEF73DFF0C4B00221A6001233B70CE
:10B6D000D2E700BFB1B30700B02D0020C42D002079
:10B6E000F82C0020282D0020CC2D00204CDA07005B
:10B6F00019B40700FC2C0020F42C0020014B18602A
:10B70000704700BFF02C002038B54368264C0FCBA3
:10B7100084E80F0021784A0701D58B073ED1636882
:10B720009D073BD1A268900738D1E068850735D1E5
:10B730001E4D13440344B2F5A04F2B6030D843F2A2
:10B740000802CC071268C2F5F42016D5834227D828
:10B75000174B184A1A60184A5A60184A9A60184BD0
:10B760001B78012B1ED1FFF729FF044618B9104B97
:10B7700028681B689847204638BD5242C2F30C0225
:10B78000821AB3EB520F0BD8094B0E4A1A600E4ABD
:10B790005A608A074CBF0D4A0D4ADFE70624EAE7E4
:10B7A0000C24E8E70824E6E7B42D00202C2D002027
:10B7B0001C2D002025B50700BDB407007DB407008F
:10B7C000F82C0020E5B40700ADB3070041B4070032
:10B7D00059B50700F8B5044600282AD083689B07AE
:10B7E00029D1174B1B78052B27D1164E4268336899
:10B7F000154F03EB820395003A68934204D94FF04A
:10B80000FF3333600C20F8BDFFF7D8FE0028FAD1D3
:10B810000E483368A16800682A4601F02BFC002816
:10B82000F1D132683B68154435609D4218BF09204C
:10B83000E9E70E20E7E71020E5E70820E3E700BF8F
:10B84000F82C0020F42C00202C2D0020D42D0020DA
:10B8500070B50A4B1D6875B9094E3378042B0AD1AF
:10B86000084C0948217800F03BF910B905233370E2
:10B8700070BD2570FCE70820FAE700BFF42C00201B
:10B88000F82C0020B02D0020302D0020F8B5144BEE
:10B890001A78032A054603D0042A03D008241AE0A4
:10B8A00004221A700F4B1B68002BF7D1FFF786FE9E
:10B8B000044680B90C4E6B6830789F0000EB830320
:10B8C000802B0AD8094BA96818443A4602F0A2F81E
:10B8D00033783B4433702046F8BD0924FBE700BFB2
:10B8E000F82C0020F42C0020B02D0020302D00205A
:10B8F00038B50D4C2378052B14D10C4B0C4D1A6820
:10B900002B689A420ED106232370FFF757FE40B9E9
:10B91000084B29681B68586800F022F908B907230A
:10B92000237038BD0820FCE7F82C0020F42C002000
:10B930002C2D0020D42D002010B5084B1B78072B90
:10B940000AD10748FFF7ECFA08B1FEF7F9FD054BFD
:10B95000BDE810409B681847082010BDF82C002057
:10B96000FC2C00201C2D00202DE9F0418CB005A8F6
:10B97000FFF7C1FC089C002C3DD00B9F04F58053C1
:10B98000BB422CD943F20803A7F580561B689C42A2
:10B990004FEA56080BD826F00100221A00F5805114
:10B9A00043463844FFF726FE0CB0BDE8F08108F5A9
:10B9B0008053012501A8CDE90153CDE90335FFF7F7
:10B9C000F3FC0028F0D14FF4805301A8CDE90233F5
:10B9D00001950495FFF7E8FC0028E5D1DBE701239A
:10B9E000CDE90137A4084FF4805301A803930494D0
:10B9F000FFF7DAFCD8E72046D6E700B58DB005A8FA
:10BA0000FFF779FC0998A0B1089BABB943F2080392
:10BA10001B685942C3F5F422C1F30C01521A03EB1F
:10BA2000520380080022039001A8CDE90123FFF70B
:10BA3000BBFC0DB05DF804FB0B9A1344F1E700B5B5
:10BA40008DB005A8FFF757FC0998B8B1089BC3B99A
:10BA500043F208031B685942C3F5F422C1F30C01F9
:10BA6000521A03EB5203800803214FF4F42204908E
:10BA700001A8CDE901120393FFF796FC0DB05DF824
:10BA800004FB0B9A1344EEE730B58DB005A8FFF721
:10BA900032FC0898A0B10B9C00F58053A34211D949
:10BAA00043F208031B68984218D8A4F5805323F08A
:10BAB0000105421B5B0805F580516019FFF79AFDEF
:10BAC0000DB030BD800803224FF48053049001A8CC
:10BAD000CDE901230394FFF767FCF1E70E20EFE7C0
:10BAE0000B2970B50A46044634D90389053300EBA7
:10BAF000430183185A1AD2B2012A2BD9994229D864
:10BB0000154801F087FF154B1A884FF6FF718A42DE
:10BB100002D02188914207D15B884FF6FF72934291
:10BB200004D062889A4201D00B2014E021890023BE
:10BB30000A344FF6FE7043F20C059942F4D934F8FA
:10BB4000022B824204D02E88B24203F10103F4D1C9
:10BB5000002000E0092070BDD82D002080100010CA
:10BB600008B50022FFF704FC044A5178137843EA31
:10BB70000123984214BF0B20002008BDD82D0020BF
:10BB800073B500230DF1020101A8ADF80230019355
:10BB900000F004FDF8B9019C25785DB3174B93F8CC
:10BBA0003020032A28D00C2606FB00F29958E9B968
:10BBB00098189D5093F830200132D2B283F830208B
:10BBC000BDF802300E4A9B08013B04344360846098
:10BBD0000846FEF7F9FC019B33B128B1184600F086
:10BBE000F9FC08B1FEF7ACFC02B070BD01300428CE
:10BBF000DAD1F0E70720EEE70420ECE7E42D00209F
:10BC000049BC070010B50C230B4A584311181358B0
:10BC100083B192F830308C68013BDBB282F830306F
:10BC200000231350C1E90133201F00F0D3FC08B1F9
:10BC3000FEF786FC002010BDE42D0020084609B167
:10BC4000FEF77EBC7047000070B51B4E96F8303092
:10BC500003B970BD184C0025236883B1013B042B48
:10BC600007D8DFE803F01C06120322002046FFF786
:10BC7000B1FDE8B2FFF7C6FF08B1FEF761FC013580
:10BC8000042D04F10C04E7D1E0E7A36863602046CB
:10BC9000FFF73AFD0028ECD0FEF752FCE9E720461A
:10BCA000FFF7F4FDFFF7D4FDF4E7FFF721FEBDE851
:10BCB0007040FFF741BE00BFE42D002008B50E4BD9
:10BCC000002283F8302011460132042AC3E9011111
:10BCD000196003F10C03F7D10848FFF70FFD00F0DE
:10BCE000F5FB08B1FEF72CFC054800F0DBFB08B1C2
:10BCF000FEF726FC002008BDE42D00203DBC070017
:10BD000081BB070008B50020FFF77CFF0120FFF78B
:10BD100079FF0220FFF776FF0320FFF773FFBDE8EE
:10BD2000084000F01BBC0000064B074A00201870BA
:10BD3000064B1A600222C3E90120C3E90300C3E9EC
:10BD400005007047182E00201C2E0020D432002041
:10BD50000020704730B5F9B1124B5C6800220A60D0
:10BD6000E4B1B0F5167F1BD8D8681D680130013CDE
:10BD7000D86018695C604FF4177404FB00540C60C1
:10BD8000012101FA00F49969013000F0010021431A
:10BD900018619961104630BD0E20FCE70420FAE7D7
:10BDA0000C20F8E7D4320020F0B51B4B9A688AB318
:10BDB0005D691E68AC1A04F0010421464FF4177740
:10BDC00007FB016C604510D1012000FA01F598696C
:10BDD0006840986100205E68D3F818C04FF0010EEB
:10BDE0000025164481EA0E0109E081F001018D422F
:10BDF000E6D11020EFE74AB1013A0C4601250EFAD0
:10BE000004F414EA0C0FA6EB0207F4D00DB1C3E959
:10BE10000172F0BD0420FCE7D4320020064A136909
:10BE20001268013B4FF4177103F0010301FB032378
:10BE3000C3F8580200207047D432002030B5C0B19A
:10BE4000B9B10E4BDA68B2B1013ADA609A681D688E
:10BE500001329A605A694FF4177404FB025404606B
:10BE60000132D4F85802086002F001025A61002041
:10BE700030BD0E20FCE70420FAE700BFD4320020DA
:10BE80003FB40C49086890B10B4B1C687CB10B4A5D
:10BE90001568CDE9025000238DF804300B60136063
:10BEA00004AB13E90700234604B030BC184704B0C4
:10BEB00030BC7047F8320020FC32002008330020EC
:10BEC000DC2810B509D0DD2810D0C02816D1FFF726
:10BED000D7FF0E4B0E4A1A6010BD0E4A0E4B196862
:10BEE0001368581C1060C022CA54F2E7094A0A4B72
:10BEF00019681368581C1060DB22F5E7064B054AE9
:10BF0000196813685C1CC8541460E2E7602C0020B8
:10BF10004DBF0700F832002008330020C02802BFC0
:10BF2000014B024A1A607047602C00204DBF070089
:10BF300008B5DB2000F0CAFB10B9024B024A1A60B8
:10BF400008BD00BF642C0020E9C00700C02810B461
:10BF500009D0DB280BD0094B094A196813685C1C0F
:10BF6000C854146006E05DF8044BFFF789BF054B29
:10BF7000054A1A605DF8044B704700BF0833002083
:10BF8000F8320020602C0020C1BE070010B5064A20
:10BF9000064C12682368D05C00F098FB10B9236847
:10BFA0000133236010BD00BF0C330020003300209C
:10BFB00008B5C02000F08AFB28B9034B1B6813B9F1
:10BFC000024B034A1A6008BD00330020642C002095
:10BFD0008DBF07007FB51C4C1C4E1D4D2268336879
:10BFE0009A4219D31B4B2B60FFF7E2FF002829D19F
:10BFF000194B01221A70194B1B681BB38DF80420D2
:10C00000174A126802922268039204AA12E90700F2
:10C0100004B0BDE870401847114B22681B689A5C59
:10C02000C02A03D022689B5CDB2B05D10D4B2A680C
:10C030009A4204BF0C4B2B602B689847042801D010
:10C040001128CBD104B070BD003300200433002090
:10C05000642C0020B1BF0700F0320020FC32002029
:10C060000C3300208DBF070031BF07001FB50378D8
:10C07000032B044605D1164B1B78022B25D1FFF765
:10C08000A9FF2378042B20D1124B1A6862B1124BFE
:10C090001968124B1B68994206D2114B20791B6814
:10C0A00004B0BDE8104018470E4B1B686BB10292FC
:10C0B000094A0221126803928DF8041004AA12E9B9
:10C0C000070004B0BDE81040184704B010BD00BF21
:10C0D000F032002008330020F8320020F432002033
:10C0E000602C0020FC32002010B50C4A0C4C126869
:10C0F0002368D35CC02B03D0DB2B0DD0042010BDF4
:10C10000DC2000F0E3FA0028F9D12368054A013366
:10C110002360054B1A60F2E7DD20F2E70C330020C4
:10C12000003300208DBF0700642C0020014B1860F5
:10C1300000207047FC3200207FB50B4D2E7886B969
:10C140000A4B93E8070001AC84E807000623084A7D
:10C150003146204600F070FA08B901232B7004B074
:10C1600070BD0020FBE700BFF032002050DA07006E
:10C170006DC00700024B00221A7000F0B9BA00BF70
:10C18000F032002010B5C0B10D4B1A78012A04D04E
:10C19000022A14BF0820042010BD0A4A002414609B
:10C1A000094A1160094A106002221A70084B094AB4
:10C1B0001A60FFF70FFF2046EEE71020ECE700BF04
:10C1C000F032002000330020043300200C33002024
:10C1D000642C0020B1BF0700054B064A1860064BCF
:10C1E0001960064B00201860054B1A60704700BFAD
:10C1F000083300201DBF0700F4320020F832002071
:10C20000602C0020064B07481B68DB00DBB20022D5
:10C21000037004215B4242708270C370FFF7B2BFAB
:10C22000383300201033002070B52C4C2C4E0246C1
:10C2300025462378012B14D0022B21D0002B4CD182
:10C24000002A4AD12748FEF76BFE08B1FEF778F9BD
:10C25000254B1B68002B40D0244ABDE87040107865
:10C260001847012A39D13168214B06311868FFF788
:10C2700089FF08B1FEF764F902232B700022D8E78A
:10C28000022A17D0032A0CD03ABB1A4B15481A6061
:10C2900044F6DF71FEF704FEF8B1BDE87040FEF72A
:10C2A0004FB9154A1368013303F0070313600023E5
:10C2B0002370E3E70F4A1368052B0AD0013313609C
:10C2C000074B19680A4BBDE8704018680631FFF744
:10C2D00059BF064B01221A70E9E770BD5C3300209C
:10C2E00050330020143300204C33002054330020FE
:10C2F00064330020583300203C330020F0B585B073
:10C3000004AB03E907009DF80400032878D8DFE8B0
:10C3100000F00802A7AA012005B0BDE8F040FFF731
:10C3200083BF039E564C032E40F28680029D6B789D
:10C3300013F00F0269D00E2A7ED1042E59D02A782C
:10C34000500656D5110654D51A44AB781A44EB78EA
:10C350001A4412F0FF024CD1B71E39462846FFF7A7
:10C3600007F8EB195A78EB5D43EA0223984240D173
:10C3700044492A780B6802F00702D8B282422BD1D6
:10C38000013303F007030B60FFF73CFF3E4B012234
:10C3900030461A70FFF742FD08B1FEF7D1F8384970
:10C3A0004FF41670FFF7D6FC002862D0042802D0A4
:10C3B0000020FEF7C5F835480521FFF70DFF08B14D
:10C3C000FEF7BEF8324B1B68002B56D04FF0000032
:10C3D00005B0BDE8F040184720684FF41671FFF72C
:10C3E000FBFE08B1FEF7ACF805B0BDE8F040FFF782
:10C3F00009BF20684FF41671FFF7EEFE00283CD00D
:10C4000005B0BDE8F040FEF79BB82978AA780B4448
:10C410001344EA78134413F0FF030DD11D4A126848
:10C420000132C1F3C20102F00702914204D11A4A5B
:10C4300003201370FFF7F8FE25681DB14FF4167145
:10C440002846D9E70E494FF41670FFF783FC60B118
:10C45000042802D02846FEF773F80C480521CBE7E4
:10C460000A480521C8E70320CAE720684FF416717F
:10C47000C2E720684FF416719FE705B0F0BD00BF1A
:10C480006033002038330020343300204033002054
:10C49000483300203C330020543300200220FFF7B3
:10C4A000C3BE0000074B10B5044618600648FFF7EE
:10C4B0003DFE08B1FEF744F8002C0CBF0E20002012
:10C4C00010BD00BF48330020FDC20700184A1948BC
:10C4D000002310B51360184A1360184A1360184AF5
:10C4E0001370184A1370184B184A01211960184B21
:10C4F0001960184B1970FEF7C1FC08B1032010BD7C
:10C50000FFF712FC0028FAD1FFF716FE0028F6D13B
:10C51000114C4FF416702146FFF71CFC0028EDD19A
:10C5200020684FF41671BDE81040FFF755BE00BFFC
:10C53000643300205CDA07005033002058330020B9
:10C54000343300205C330020383300209DC40700C2
:10C550003C33002054330020603300200C4A08B5DF
:10C56000002313600B4A1360FFF7F2FB08B1FDF7DD
:10C57000E7FFFFF7FFFD08B1FDF7E2FF0648FEF712
:10C58000CFFC042802D10020FDF7DAFF002008BD0F
:10C590004C330020483300201433002037B50D46BB
:10C5A000044698B191B10A4B19780022019259B111
:10C5B00001A91A70FFF742FC019B063B2B80236800
:10C5C0000433236003B030BD0420FBE70E20F9E7FD
:10C5D000343300200438FFF7E7BB000013B50478BC
:10C5E000012C12D104238DF8003043680F481B78CA
:10C5F0008DF80430214600F093FA0D4B1C700D4B62
:10C6000068461B68984702B010BD022C08D1C36869
:10C6100006488DF800400121019300F081FAEEE711
:10C62000002CF0D103238DF80030E8E76C330020B4
:10C630006D33002068330020F0B51F4D06461746C5
:10C640009C460FCD89B06C460FC495E80F0084E876
:10C650000F00B368069333798DF81CC01A1E18BFFB
:10C6600001228DF814207279002A14BF0E220022B4
:10C670008DF81520F2780292B27803923278019206
:10C68000727800920D4A17600D4A0021022B11703A
:10C690000FD00C49684600F0F7F840B99DF81D30FE
:10C6A0000BB900F0E9FA0848012100F039FA09B0A5
:10C6B000F0BD0620FBE700BF60DA0700683300200A
:10C6C0006D330020DDC507006C33002008B5074B33
:10C6D00001211870184600F0B9F9112803D000287C
:10C6E00018BF032008BD0420FCE700BF6E33002004
:10C6F00008B500F055F9002008BD82B00190019BFB
:10C700000BB902B07047019B013B019340F2E73047
:10C71000013800BF00BF00BF00BF00BF00BF00BFA7
:10C7200000BF00BF00BF00BF00BF00BF00BF00BF11
:10C7300000BF00BF00BF00BF00BF00BF00BF00BF01
:10C7400000BF00BF00BF00BF00BF00BF00BF00BFF1
:10C7500000BF00BF00BF00BF00BF00BF00BF00BFE1
:10C7600000BF00BF00BF00BF00BF00BF00BF00BFD1
:10C7700000BF00BF00BF00BF00BF00BF00BF00BFC1
:10C7800000BF00BF00BFC3D1B9E700000028C3B29B
:10C79000A8BF00F160424FEA501010B5BABF0D4A71
:10C7A00003F00F0402F561424FEA41114FEA8000A5
:10C7B000C9B200F16040B4BF115582F8001300F512
:10C7C000614003F01F0201239340C0F880310360F1
:10C7D00010BD00BF14ED00E0074B00221A60074AAD
:10C7E000938A91689BB2C95C938A01339BB293820E
:10C7F000034BC3F81C1570471C2100407033002008
:10C80000002000401FB501238DF80030054B8DF846
:10C81000080001916846D3E90012904705B05DF821
:10C8200004FB00BF703300201FB5084B8DF80800D3
:10C830009968019100228DF800209A756846D3E925
:10C840000012904705B05DF804FB00BF7033002074
:10C850000A4B0B49D87D0B4A18B90860D2F8183535
:10C86000704700200860597ED2F81805DA685054E5
:10C870005A7E0132D2B25A76704700BF7033002020
:10C880000821004000200040F8B53D4C94F81BE022
:10C89000BEF1000F72D13B4B002808BF18460123A0
:10C8A0000268457F257793404FF0A0424FF0030C7C
:10C8B000C2F80835036803F5E07342F823C0436803
:10C8C00003F5E07342F823E02F4B8669C3F8246533
:10C8D000077D467D3E43C3F86C65D0E90067C3F829
:10C8E0000C65C3F81475067D002D36D0012E13D1CA
:10C8F000876807F5E07742F827E0C768BE40C2F8CE
:10C900000865C66806F5E07642F826C0D0E902263A
:10C91000C3F80865C3F8102503696160236079B125
:10C92000017F1A4A0DB31A48002303600361436173
:10C930001360154B174AC3F804230220FFF726FFA4
:10C94000227F114BC2B10822C3F8002500204FF40A
:10C950008073E08220766383F8BD012EDCD1876886
:10C9600007F5E07742F82750C7E70B4B1D601560CD
:10C970000A4AC3F8E821E0E70422E5E70820EBE7EC
:10C980007033002080DA070000200040442100407E
:10C9900010210040100302001C2100408000020012
:10C9A00070B5254A254B117F00293FD00020C3F8E0
:10C9B000000553684BB1214B00293AD02048C3F8F9
:10C9C0000803204B0420C3F880001C4BD3F80C55FF
:10C9D000D3F81445D3F80815D3F810054FF0FF36F7
:10C9E000C3F80C6504F5E074C3F8146505F5E0754B
:10C9F000C3F80865C3F810654FF0A043022643F85A
:10CA0000256043F82460441C1CBF00F5E07043F827
:10CA100020604B1C1FBF4FF0A04301F5E0710220C6
:10CA200043F821000023D376536070BDC3F800158E
:10CA3000BFE70548C3E700BF703300200020004077
:10CA40001003020000E100E08402020070B52D4CEA
:10CA5000237F23B1020C1204B2F1005F4ED1A57DF9
:10CA6000002D4DD1A175A0602749A582E3B1274BC8
:10CA7000274A1D601560274DA67DC5F84405012095
:10CA8000C5F848650860616809B1002070BD196883
:10CA9000106819B90028FAD00F2002E0002818BF4A
:10CAA0000F200023A375F1E71B48036001230B60EF
:10CAB000FFF792FE6368002BE7D1A27DA38A9BB2A9
:10CAC00093420CD3A38A9BB2B3F5807FE4D0036872
:10CAD000002BFCD0114B01221A600020E1E7036813
:10CAE00023B9A38A9BB2B3F5807FF8D1A38A9BB206
:10CAF000B3F5807FE2D0FFF76FFEDEE71020C5E7D9
:10CB00001120C3E77033002008200040202100409E
:10CB100058210040002000401C2100400C20004013
:10CB20002DE9F0414D4C227F2AB1030C1B04B3F1D7
:10CB3000005F40F0908065682DB1494B8AB14FF499
:10CB40000476C3F80863E37D8BB1237E002B34D0D9
:10CB50002DB1434B42B14FF40472C3F804231125A5
:10CB600028E04FF40176ECE74FF40172F5E7E17548
:10CB7000E06063762376002A34D03A4D3A4E0022A4
:10CB800032602A60364AC2F83405C2F838152946A0
:10CB9000BBB9012313606368F3B9344833680D6887
:10CBA00002682B4302D1002AF8D01D460023E3750A
:10CBB00072B103252846BDE8F0812061217601236A
:10CBC000D9E7D2F8003243F02003C2F80032E2E79E
:10CBD000002DEFD00F25EDE74FF40473C2F80433B6
:10CBE0000025E7E7A27E3AB933B9204A136042F83C
:10CBF0001C3C1B4B01221A60626832BB194E1B4F52
:10CC0000DFF8708032603B68D8F80020356872B970
:10CC10000DB9002BF7D00022E275002BC9D1002DF1
:10CC2000D8D1A27E012372B10D4A1360C2E7002B56
:10CC3000F1D1002DEFD1FFF70BFE637EE27D9A422A
:10CC4000E1D82B46E7E70A4AEFE7054B4FF40172BC
:10CC5000C3F80423C4E71025ACE700BF70330020FD
:10CC600000200040442100401021004024210040C9
:10CC70000420004008210040074B1A7F52B99A7ED9
:10CC800042B906490A6041F81C2CA1F592710122B3
:10CC90000A609A76704700BF70330020242100405C
:10CCA000F0B56A4C6A4D217F85B0002955D069499D
:10CCB0000A68002A33D0002302220B608DF800207E
:10CCC000654AD2F88014C2F880140391D2F83C254A
:10CCD0008DF80820E268E37523760192D4E9001309
:10CCE000684698472B685BB100232B60E27D3AB120
:10CCF000E375594BE168D3F83C05C0B2FFF782FDFC
:10CD0000564B1A684AB100221A60A37D2BB1524BD0
:10CD1000D3F84C05C0B2FFF787FD05B0F0BD504B0E
:10CD200019680029DED04C4E1A60D6F83C35E07DFB
:10CD3000DBB29842D6D1237EE16863B1D6F80072A7
:10CD400027F02007C6F80072E3752369E3602276B6
:10CD5000FFF758FDC6E7E375FAE73F4BD3F8042326
:10CD600012F4007F184640D03A4A1668002E3CD094
:10CD700011604FF40172C3F80823A37E13B9394B35
:10CD800001221A60344A02238DF80030D2F8803430
:10CD9000C2F880340393E37D8DF80830E368019393
:10CDA0000023E37523766846D4E9001398472E4A9A
:10CDB000136833B1A38AA07D9BB298423FD9FFF795
:10CDC0000BFD2B68002BA8D000232B60A37E13B192
:10CDD000214B01221A60E37D002B9ED00023607E50
:10CDE000E168E375FFF70EFD97E7D0F804335B07C2
:10CDF000DDD51E4B1B68002BD9D0FFF729FD637EC4
:10CE0000E27D9A42D3D1237E53B1E3752369E16871
:10CE1000E3600023607E23766376FFF7F3FCC6E7CA
:10CE2000A37E13B90F4B01221A600B4B4FF4017212
:10CE3000C3F808230023607EE168E375EDE7002373
:10CE400013600028BDD0FFF7EFFCBAE77033002075
:10CE500044210040242100400020004020210040C7
:10CE600010210040042000401C2100400821004007
:10CE700029DF704728DF704723B502460846C96896
:10CE800043680093044B53F82150436910F80C1B7E
:10CE9000A84702B020BD00BF9033002070B5194CE8
:10CEA0002378182202FB03431A795D69012A03D013
:10CEB000032A1AD00F2070BD134AD86816689A68E2
:10CEC0009969A2EB0632B2F5805F284401EB063186
:10CED00000EB063034BF92084FF48062FFF7C8FFC2
:10CEE0000028E8D10123A370E5E74FF080531869CB
:10CEF000054B1B6880B2B5FBF0F01844FFF7BAFF92
:10CF0000EEE700BF9C3300209434002070B5134D31
:10CF10006C780A2C1FD02E783444E4B2092C84BFDC
:10CF20000A3CE4B2182606FB0454A261207103C92E
:10CF3000A360049BE360AB7804F1100282E8030075
:10CF400023B100206B7801336B7070BDFFF7A6FF33
:10CF50001128F7D1F5E70420F7E700BF9C33002044
:10CF600070B527498B780C462BB1002602288E70AD
:10CF700002D003283AD070BD0D78224A182101FB57
:10CF80000541136889680133B1EB033F13601BD877
:10CF900063781660013B63706B1CDBB21826092BAB
:10CFA00006FB054188BFA5F1090304310020237069
:10CFB000FFF762FF06FB054300220321C3E90412C9
:10CFC0001A719A609A61DA606378002BD3D0A378E3
:10CFD000002BD0D1FFF762FF0028CCD01128CAD097
:10CFE0002178182303FB0141043105E00B78182256
:10CFF00002FB031104310D20BDE87040FFF73CBF78
:10D000009C330020943400200C4B00221A600C4BFF
:10D010000A201A809A7003210138C3E904121A7198
:10D020009A609A61DA6003F11803F5D1054B186034
:10D03000054BC3E900009860704700BF943400209E
:10D040009C3300209034002090330020074A13685E
:10D05000032B1FBF0B60591C1160054A1DBF0168DF
:10D0600042F8231000200420704700BF90340020B5
:10D070009033002013B5CC180C43A40708D10093BB
:10D0800013460A4601460120FFF740FF02B010BDDB
:10D090001020FBE707B500220B4600920146032053
:10D0A000FFF734FF03B05DF804FB13DF704718DFB0
:10D0B0007047000000B58BB000230222CDE900329A
:10D0C000CDE90233049310238DF801308DF802204E
:10D0D00028B101A8FFF7EBFF08B1FDF731FA4FF4D3
:10D0E000F420FFF7E2FF08B1FDF72AFA124B1349CB
:10D0F0004822684600F09CFA08B1FDF721FA0121A8
:10D1000005AA084600F0E6FA08B1FDF719FA9DF8FD
:10D11000203005A843F001038DF8203000F0F2FA2A
:10D1200008B1FDF70DFA064800F0B8FA08B1FDF7AE
:10D1300007FA0BB05DF804FB35D70700B0370020C5
:10D1400045D10700FFF70CBF08B5054A1421082098
:10D15000FDF716FA18B1BDE80840FDF7F1B908BDB2
:10D1600098340020F0B51D491D4C0B682078013320
:10D1700050BB1C4D1C4E2A680B6056F82260B3420F
:10D1800021DB4FF0A0430860D3F80415174FCE43BE
:10D1900006F08006C3F8086501F08001144EC3F85C
:10D1A0000C15316857F822700131B94231600ADB41
:10D1B0000132062A30602A6005DD8022C3F80C2582
:10D1C000012323702860F0BD42F20F729342C9BF61
:10D1D00000230B600B602370F5E700BFFC370020D5
:10D1E00000380020F8370020BCDA0700A0DA07007A
:10D1F0000438002070B54FF08043D3F81C45B12CA3
:10D2000004BF0022C3F81C254FF0A0434FF00302D7
:10D21000C3F81C27C3F82027C3F82427C3F82827FE
:10D22000C3F82C27C3F830274FF4CC52C3F8082595
:10D23000364B1B680CBF01260026B3F5F42F02D035
:10D240000020FDF77DF94FF080531B69B3F5805F37
:10D2500002D00020FDF774F92D4B2E4A0521002045
:10D26000FDF7B4FD08B1FDF76BF94FF0A0452A4B6F
:10D27000C5F81837FDF7B0FF8023C5F80C3500F06E
:10D2800079FA264900234FF47A72012000F094FACB
:10D29000FDF7EAFFB13C18BF0124D8B1FDF7F6FF56
:10D2A00008B1FDF74DF92046FFF704FFFFF74CFFEB
:10D2B000FEF70BF808B1FDF743F94FF0A043D3F8A0
:10D2C00010355B0600D55EB1FDF79EFF78B1FDF726
:10D2D00037F90CE02046FFF7EDFEFFF735FFECE7EE
:10D2E00043F208031868FDF7D7FE0028ECD043F29C
:10D2F00008042068FDF7D0FE28B1FDF7B5FF10B98E
:10D300002068FDF78DFF002070BD00BF14100010D5
:10D310008DAF0700E83500200C00030065D1070041
:10D32000094B1B78062B0CD1084B1B681A0708D138
:10D33000074B186800F0F000A0F130035842584144
:10D3400070470020704700BFE00F00F0E40F00F0CE
:10D35000E80F00F00C4B1B78062B10D10B4B1B6811
:10D360001A070CD10A4B186800F0F003302B08D0D4
:10D3700000F0E000A0F140035842584170470020FF
:10D3800070470120704700BFE00F00F0E40F00F08D
:10D39000E80F00F008B5FFF7C3FF10B1674B684A0C
:10D3A0001A60FFF7D7FF28B1664B674A1B68C3F3C3
:10D3B00042331360FFF7B4FF20B1644AD36823F00F
:10D3C0008073D360FFF7C6FF40B14FF08043002267
:10D3D000C3F80C21C3F81021C3F83825FFF7A0FFCC
:10D3E00010B15B4B03221A60FFF79AFF40B1594B13
:10D3F00005221A6001229A6700229A603F225A6031
:10D40000554B1B78062B50D1544B1B681B074CD136
:10D41000534B1B6803F0F003502B46D14FF0805262
:10D42000504BD2F80414C3F82015D2F80814C3F8EE
:10D430002415D2F80C14C3F82815D2F81014C3F828
:10D440002C15D2F81414C3F83015D2F81814C3F8F8
:10D450003415D2F81C14C3F84015D2F82014C3F8C0
:10D460004415D2F82414C3F84815D2F82814C3F888
:10D470004C15D2F82C14C3F85015D2F83014C3F858
:10D480005415D2F83414C3F86015D2F83814C3F820
:10D490006415D2F83C14C3F86815D2F84014C3F8E8
:10D4A0006C15D2F84424C3F870252F4AD2F888307E
:10D4B00043F47003C2F88830BFF34F8FBFF36F8F10
:10D4C0004FF01023D3F80022002A03DBD3F80432F4
:10D4D000002B2FDA254B0122C3F80425D3F80024B2
:10D4E000002AFBD04FF010221521C2F80012D3F809
:10D4F0000024002AFBD04FF010231522C3F8042289
:10D500001A4B1A46D3F800140029FBD00021C3F8A7
:10D510000415D2F80034002BFBD0BFF34F8F124913
:10D52000134BCA6802F4E0621343CB60BFF34F8F22
:10D5300000BFFDE70F4B104A1A6008BD74C00740DA
:10D540000DF0ADBA440200103C050040F0ED00E0E3
:10D55000A005004010560040E00F00F0E40F00F07E
:10D56000E80F00F000C0004000ED00E000E00140E6
:10D570000400FA05682C00200090D00352DF7047A9
:10D5800010DF704760DF704761DF704708B5FCF758
:10D59000E5FF08BD2DE9F347204B1B7803F0FF079B
:10D5A000002B37D01E4D1F4E2B683268B3FA83F420
:10D5B000640952B301A8FFF7E1FF052828D0C8B1DC
:10D5C000FCF7BEFF002CF5D1DFF85C80DFF85C9043
:10D5D000D9F800A0B8F80030ADF8043001A95046E1
:10D5E000FFF7D2FF05280DD040B1FCF7A9FF002CB2
:10D5F000EED1DFE7336801989847E3E72B685046A0
:10D600009847F4E734B93C46D4E71BB13C46DBE726
:10D61000002CFBD002B0BDE8F08700BF143800201A
:10D620000C38002018380020083800201C38002052
:10D6300010B5F9B18C071DD1114C216011490A8038
:10D64000114A12491360FFF79BFF70B9104B01227A
:10D650001A70104A92F816335B060DD50E4B996876
:10D6600021B11A6842F480021A6010BD4FF48003A1
:10D670001360FAE70720F8E742F20200F5E700BF7F
:10D680001C38002008380020103800208DD50700F5
:10D690001438002000E100E03838002018B1034BB6
:10D6A0001860002070470E20704700BF1838002017
:10D6B00008B5074B1B682BB1984738B1BDE8084047
:10D6C000FCF73EBFBDE80840FFF764BF08BD00BFE0
:10D6D0001038002070B5144605460E46142200216D
:10D6E0002046FCF723FF227B26720021012361F3F1
:10D6F0000002238021612273657205B1A3720020AC
:10D7000070BD000007B5054B0193019B009369466E
:10D71000FFF738FF03B05DF804FB00BF002C0020CA
:10D7200008B511B10020FCF70BFFBDE80840FFF77A
:10D7300031BF00000021024A0846FCF745BF00BF88
:10D7400021D70700B0F5A07F0AD1064B1B7813B98B
:10D75000054B02221A70054B054A1B6810681847D2
:10D76000704700BF203800202138002024380020D6
:10D770002838002008B5054A0548002100F06AF85D
:10D7800010B9044B01221A7008BD00BF45D707002D
:10D79000D8DA07002138002010B5054C2378032B78
:10D7A00004D1044800F0C2F802232370002010BD09
:10D7B00021380020D8DA07002DE9F743054617463F
:10D7C00098460E46002935D001282ED0002833D1A6
:10D7D0004FF480791A4C237883B3032B04D1FFF7DD
:10D7E000DBFF08B1FCF7ACFE2378022B02D1154811
:10D7F00000F0A0F8144B13481D70144B1E60144B1E
:10D80000C3F80080012300933A464B46002100F004
:10D81000A6F823780B48022B09D100F083F80323E4
:10D820002370002003B0BDE8F0838146D2E700F00A
:10D830006BF8F4E70E20F5E70720F3E70820F1E79F
:10D8400021380020D8DA07002038002024380020B2
:10D8500028380020F8B52A4F06790C2303FB0673FD
:10D8600005461B7A0C46002B46D1002A46D011B93A
:10D87000244C04EBC6040C237343F918FA5000221D
:10D8800063684B60944669792868D3B299422CD872
:10D89000E17840F30730FEF779FF29686378D1F823
:10D8A000042503F0030322F003021343C1F80435F7
:10D8B0002968A378D1F8082503F0030322F00302B6
:10D8C0001343C1F8083529682378D1F8102503F0EF
:10D8D0000F0322F00F021343C1F810350C2303FB92
:10D8E0000676012333720020F8BD9B0003F5A07378
:10D8F000013240F803C0C6E70820F5E70720F3E748
:10D900002C380020E0DA0700036801221A6003794E
:10D91000034A0C2101FB032302221A72704700BF45
:10D920002C380020036801221A6070470368012226
:10D930005A60704703680122DA60704730B54FF4CF
:10D94000803405688C403BB1C5F80443036801F599
:10D95000A87143F8212030BDC5F80843F6E7F0B4BC
:10D96000076840F20116D7F800528E4025EA0605F6
:10D97000C7F800520468D4F800522B43C4F80032B0
:10D980009DF81030F0BCFFF7D9BF00002DE9F04141
:10D990000E4C0F4F0F4E00254FF48038236804F5CE
:10D9A000E04080B253B1D7F8043308FA05F21A42C6
:10D9B00004D000232360D6E9003198470135042DB7
:10D9C00004F10404EAD1BDE8F08100BF40910040B9
:10D9D000009000402C3800200649074A074B9B1A4C
:10D9E00003DD043BC858D050FBDCFFF7D3FCFCF749
:10D9F0002BFD0000F4DA0700002C0020742C00201E
:10DA0000FEE7FEE7FEE7FEE7FEE7FEE7FEE7FEE7EE
:10DA1000FEE7FEE70A44914200F1FF3300D1704770
:10DA200010B511F8014B03F8014F9142F9D110BD27
:10DA3000F8B500BFF8BC08BC9E467047F8B500BFFB
:10DA4000F8BC08BC9E467047002C0020FC2C00202F
:10DA50001A1B19180000000000509D00143300200C
:10DA6000060000000800000007000000050000009C
:10DA700000000000000000000000D60106000000C9
:10DA8000060000000800000007000000050000007C
:10DA900000000000000000000000D60106000000A9
:10DAA000010000000200000003000000040000006C
:10DAB00005000000080000000A0000001027000018
:10DAC00088130000A60E0000C409000053070000E0
:10DAD000E2040000E80300000090004000040000A1
:0CDAE00000000006000000000000000034
:08DAEC0054C9FF7F0100000096
:10DAF4000000000000000000000000000000000022
:10DB04000000000000000000000000000000000011
:10DB14000000000000000000000000000000000001
:10DB240000000000000000000000000000000000F1
:10DB340000000000000000000000000000000000E1
:10DB440000000000000000000000000000000000D1
:10DB54001DBF07008DBF07000090D00325A4070058
:04DB640001A4070011
:020000020000FC
:020000041000EA
:0410140000A0070031
:0410180000E00700ED
:040000037000D9D9D7
:00000001FF
